:1000000058C0000073C0000071C000006FC0000045
:100010006DC000006BC0000069C0000067C0000038
:1000200065C0000063C0000061C000005FC0000048
:100030005DC000003BC1000059C0000057C0000077
:1000400055C0000053C0000051C00000FCC00000BB
:100050004DC000004BC0000049C0000047C0000078
:1000600045C0000043C0000041C000003FC0000088
:100070003DC000003BC0000039C0000037C0000098
:1000800035C0000033C0000031C000002C02300237
:100090004E026C028A02A802C602E40202031F0397
:1000A00069036D03BC03DB030504350454047304C6
:1000B000920411241FBECFEFD0E4DEBFCDBF11E00C
:1000C000A0E0B1E0E6E1FBE000E00BBF02C007907A
:1000D0000D92A43AB107D9F721E0A4EAB1E001C03A
:1000E0001D92A53BB207E1F7C2D413C589CF8FEEAD
:1000F00088B90000309B29C0319B29C0329B29C0A0
:10010000339B29C08FED88B90000309B26C0319BFE
:1001100026C0329B26C0339B26C08FEB88B90000D7
:10012000309B23C0319B23C0329B23C0339B23C011
:100130008FE788B90000309B20C0319B20C0329BE4
:1001400020C0339B20C080E0089581E3089584E3BC
:10015000089587E308958AE2089582E3089585E388
:10016000089588E3089580E3089583E3089586E37E
:10017000089589E3089583E2089581E4089582E46F
:10018000089583E4089584E40895181619065CF030
:100190000895000021503109E1F74F5F5F4F841748
:1001A000950719F4089540E050E027E033E0F1CFDF
:1001B00016988BB9179A0000179882E090E0E5CF67
:1001C000089581E0F5CF089584E690E0DEDF88E3CE
:1001D000EFDF86E0EDDF8FE0EBDF81E0E9DF8AE053
:1001E00090E0D3CF0895169A8BB9179A000017980C
:1001F00081E090E0CACF0895813118F48158D8CFBA
:1002000008958155D5CF08950F931F93CF93DF9312
:10021000182FEB01D6DF8881882351F001E0010F10
:10022000812FEADF8991DFDF102F88818111F6CFDE
:10023000DF91CF911F910F91089580E485B980ECF3
:100240008CBD789408951F920F920FB60F921124CF
:100250008F938EB58093AB018F910F900FBE0F904F
:100260001F9018958BE0809381008DE790E090932C
:1002700089008093880082E080936F00109285004F
:10028000109284008091070190910801A0910901CA
:10029000B0910A018093A6019093A701A093A801B1
:1002A000B093A9018FB780688FBF08951F920F92F6
:1002B0000FB60F9211248F939F93AF93BF938091AA
:1002C000A6019091A701A091A801B091A901019761
:1002D000A109B1098093A6019093A701A093A80159
:1002E000B093A901892B8A2B8B2B99F481E0809301
:1002F000AA018091070190910801A0910901B09194
:100300000A018093A6019093A701A093A801B0933E
:10031000A901BF91AF919F918F910F900FBE0F9048
:100320001F9018956093070170930801809309014D
:1003300090930A016093A6017093A7018093A8018E
:100340009093A9010895D3DE813409F464C0823406
:1003500009F464C0833409F464C0803329F4109232
:10036000050188E090E008958133D1F480E3809323
:10037000060180E090E0A0E0BFE38093AD019093A0
:10038000AE01A093AF01B093B0018091050182301E
:1003900008F04AC08F5F8093050184E090E00895E3
:1003A0008233C9F481E38093060180E090E0A0E805
:1003B000BFE38093AD019093AE01A093AF01B093E2
:1003C000B00180910501823090F58F5F8093050127
:1003D00085E090E008958333C9F481E380930601BA
:1003E00080E090E0A0ECBFE38093AD019093AE017C
:1003F000A093AF01B093B001809105018230D0F499
:100400008F5F8093050186E090E008958434A9F41D
:1004100087E090E0089581E090E0089582E090E028
:10042000089583E090E0089584E090E0089585E0E9
:1004300090E0089586E090E0089580E090E00895CF
:10044000E091B4018E2F90E08A30910508F013C13D
:10045000FC01EA5BFF4F54C381E08093B40111C1FA
:1004600080910001813061F480910101909102013D
:10047000181619060CF005C182E08093B40104C17E
:100480008111FFC080910101909102011816190697
:100490000CF0F7C082E08093B401F6C080910001B7
:1004A000813061F4809101019091020118161906C2
:1004B0000CF0EAC083E08093B401E0C08111E4C095
:1004C0008091010190910201181619060CF0DCC010
:1004D00089E08093B401EAC080910001813061F429
:1004E0008091010190910201181619060CF0C6C006
:1004F00084E08093B401CBC08111C0C08091010120
:1005000090910201181619060CF0B8C081E0809392
:10051000B401B7C080910001813061F48091010184
:1005200090910201181619060CF0B1C085E0809375
:10053000B401B0C08111ABC0809101019091020162
:10054000181619060CF0A3C083E08093B40196C07E
:1005500080910001813061F480910101909102014C
:10056000181619060CF096C086E08093B40195C069
:10057000811190C080910101909102011816190615
:100580000CF088C084E08093B40181C080910001A8
:10059000813061F4809101019091020118161906D1
:1005A0000CF07BC087E08093B4017AC0811175C0E4
:1005B0008091010190910201181619060CF06DC08E
:1005C00085E08093B40166C080910001813061F4C0
:1005D0008091010190910201181619060CF060C07B
:1005E00088E08093B4015FC081115AC080910101FD
:1005F00090910201181619060CF052C086E0809303
:10060000B4014BC080910001813061F480910101FF
:1006100090910201181619060CF045C089E08093EC
:10062000B40144C081113FC0809101019091020149
:1006300018161906C4F587E08093B40131C0809183
:100640000001813059F48091010190910201181646
:10065000190664F581E08093B40113C0811126C0AE
:10066000809101019091020118161906FCF488E0AE
:100670008093B40118C01092B401089583E085B945
:10068000089581E085B9089581E085B9F7CF82E0CA
:1006900085B9089586E085B9089584E085B90895FF
:1006A0008CE085B9089588E085B9089589E085B919
:1006B0000895CF92DF92EF92FF92E091B3018E2FD7
:1006C00090E08930910508F031C1FC01E05BFF4FFB
:1006D00017C281E08093B301C5C135DE019721F4D3
:1006E00082E08093B301A0C12EDE029749F483E03B
:1006F0008093B3018091A501813009F0B3C125C178
:1007000022DE039749F484E08093B3018091A50130
:10071000813009F0A7C125C116DE049749F485E0B0
:100720008093B3018091A501813009F09BC125C15F
:100730000ADE059749F486E08093B3018091A50114
:10074000813009F08FC125C1FEDD069749F487E0AD
:100750008093B3018091A501813009F083C125C147
:100760008091AB01813021F482E08093B3015CC1C0
:1007700081E08093B30176C18091B1019091B20183
:100780008233910564F421E02093A50101969093B2
:10079000B2018093B10182E08093B301CAC010928C
:1007A000A5011092B2011092B1011092A40183E050
:1007B0008093B30157C18091B1019091B20180390A
:1007C00021E0920774F421E02093A5010196909313
:1007D000B2018093B1012093000183E08093B301C3
:1007E000B4C01092A5011092A40180E094E090930F
:1007F000020180930101109200011092B201109247
:10080000B10184E08093B3012DC18091B101909139
:10081000B201803921E0920774F421E02093A50110
:1008200001969093B2018093B1011092000184E08F
:100830008093B30196C01092A5011092B20110925C
:10084000B1011092A40180E094E0909302018093A2
:10085000010182E0809300011092AB0181E380935B
:10086000050188E08093B301E4C08091B1019091CB
:10087000B201883C910564F421E02093A501019622
:100880009093B2018093B10185E08093B30175C06C
:100890001092A5011092B2011092B1011092A40120
:1008A00088E08093B301C5C08091B1019091B201FD
:1008B000883C910564F421E02093A5010196909372
:1008C000B2018093B10186E08093B30162C01092BF
:1008D000A5011092B2011092B1011092A40188E01A
:1008E0008093B301A6C08091B1019091B201883C80
:1008F000910564F421E02093A50101969093B20143
:100900008093B10187E08093B3014FC01092A5019D
:100910001092B2011092B1011092A40188E080936C
:10092000B30187C081E08093B3019CC01092B301F2
:1009300099C08091A401811195C06BE071E081E0C4
:1009400063DC81E08093A4018DC08091A4018111BA
:1009500089C06AE171E081E057DC81E08093A40105
:1009600081C08091A40181117DC066E271E081E0C7
:100970004BDC81E08093A40175C08091A4018111BA
:1009800071C062E371E081E03FDC81E08093A4010B
:1009900069C08091A401811165C06FE471E081E0BC
:1009A00033DC81E08093A4015DC08091A4018111BA
:1009B00059C069E671E081E027DC81E08093A40101
:1009C00051C020E030E0A901C701B60195D018164A
:1009D00094F020E030E040E85FE3C701B6018CD03E
:1009E0001816BCF420E030E040E050E4C701B60146
:1009F0005BD0882374F480910601F5DB89E0FCDB91
:100A000080910301F0DB8AE0F7DB80910401EBDBEE
:100A100003C080910601E7DB8FE1EEDB80910501E9
:100A2000E2DB1092A4011EC08091A5018130D1F4B7
:100A300080CF64E871E081E0E7DB88E0DDDBC09037
:100A4000AD01D090AE01E090AF01F090B00120E098
:100A500030E040E85FE3C701B60126D088230CF000
:100A6000B8CFAFCFFF90EF90DF90CF90089580EF99
:100A700087B98FE088B98FEF81B912B88AB91BB8EE
:100A800084B915B86AE070E080E090E04BDCEADB06
:100A90009BDB97DBD2DB0DDED3DC8091AA018823C0
:100AA000E1F31092AA01F7CF03D008F481E0089592
:100AB000990F0008550FAA0BE0E8FEEF161617066F
:100AC000E807F907C0F012161306E407F50798F0D7
:100AD000621B730B840B950B39F40A2661F0232BF0
:100AE000242B252B21F408950A2609F4A140A6956C
:100AF0008FEF811D811D0895DBDF08F48FEF0895CE
:100B0000EE0FFF1F0024001C0BBE0790F691E02D96
:060B10000994F894FFCFE8
:100B16000200042E3530310100000044697370650F
:100B26006E73696E67204E6F77004F70656E696EE3
:100B360067204E6F7700436C6F73696E67204E6F48
:100B4600770048616C662061204375702068617388
:100B5600204265656E2073656C6563746564004F3D
:100B66006E652043757020686173204265656E204E
:100B760073656C656374656400312E35206375702A
:100B86007320686173204265656E2073656C6563CA
:100B960074656400416D6F756E743A20202043754C
:100BA6007073202054696D65732066696C6C65648A
:040BB6003A200000E1
:00000001FF
