:100000004EC0000069C0000067C0000065C000006D
:1000100063C0000061C000005FC000005DC0000060
:100020005BC0000059C0000057C0000055C0000070
:1000300053C0000076C000004FC000004DC000005B
:100040004BC0000049C0000047C00000BDC0000018
:1000500043C0000041C000003FC000003DC00000A0
:100060003BC0000039C0000037C0000035C00000B0
:1000700033C0000031C000002FC000002DC00000C0
:100080002BC0000029C0000027C00000FF000301B2
:1000900021013F015D017B019901B701D3011124C9
:1000A0001FBECFEFD0E4DEBFCDBF11E0A0E0B1E0D6
:1000B000ECE9F5E000E00BBF02C007900D92A8301C
:1000C000B107D9F721E0A8E0B1E001C01D92A53148
:1000D000B207E1F743D260C293CF8BE080938100F7
:1000E0008DE790E0909389008093880082E0809370
:1000F0006F0010928500109284008091030190910E
:100100000401A0910501B091060180930A0190932A
:100110000B01A0930C01B0930D018FB780688FBFC6
:1001200008951F920F920FB60F9211248F939F93F1
:10013000AF93BF9380910A0190910B01A0910C01A4
:10014000B0910D010197A109B10980930A01909323
:100150000B01A0930C01B0930D01892B8A2B8B2BE3
:1001600099F481E080930E01809103019091040144
:10017000A0910501B091060180930A0190930B01B3
:10018000A0930C01B0930D01BF91AF919F918F91FE
:100190000F900FBE0F901F901895609303017093FE
:1001A0000401809305019093060160930A01709306
:1001B0000B0180930C0190930D01089580E485B9A3
:1001C00080EC8CBD789408951F920F920FB60F9219
:1001D00011248F938EB5809313018F910F900FBED2
:1001E0000F901F901895E09114018E2F90E08930A8
:1001F000910508F0F4C0FC01EA5BFF4FC4C181E047
:1002000080931401FEC080910001813061F48091DF
:10021000010190910201181619060CF0F2C082E05B
:1002200080931401F1C08111ECC080910101909183
:100230000201181619060CF0E4C088E0809314013E
:10024000DDC080910001813061F4809101019091C5
:100250000201181619060CF0D7C083E08093140130
:10026000D6C08111D1C08091010190910201181670
:1002700019060CF0C9C081E080931401C2C08091BE
:100280000001813061F48091010190910201181602
:1002900019060CF0BCC084E080931401A3C0811146
:1002A000B6C08091010190910201181619060CF058
:1002B000AEC082E080931401A7C08091000181301C
:1002C00061F48091010190910201181619060CF059
:1002D00089C085E08093140188C0811183C080911A
:1002E000010190910201181619060CF07BC083E001
:1002F000809314018CC080910001813061F4809161
:10030000010190910201181619060CF06EC086E0EA
:10031000809314016DC0811168C08091010190919A
:100320000201181619060CF060C084E080931401D5
:1003300059C080910001813061F480910101909158
:100340000201181619060CF053C087E080931401BF
:1003500052C081114DC08091010190910201181687
:1003600019060CF045C085E0809314013EC08091D1
:100370000001813059F48091010190910201181619
:100380001906CCF588E08093140138C0811133C080
:1003900080910101909102011816190664F586E01A
:1003A0008093140125C080910001813059F480911F
:1003B0000101909102011816190604F581E080935D
:1003C00014011FC081111AC0809101019091020196
:1003D000181619069CF487E0809314010CC0109243
:1003E0001401089586E082B9089584E082B90895E1
:1003F0008CE082B9089588E082B9089589E082B9D5
:10040000089581E082B9089583E082B9089582E079
:1004100082B90895809112018230F1F028F4882386
:1004200049F0813059F087C0833029F1843009F4D4
:1004300051C081C081E08093120108958091130121
:10044000813009F08AC082E0809312018091090115
:10045000813009F082C072C010920901109211011E
:100460001092100181E0809300011092080183E056
:1004700080931201089580911001909111018439A7
:1004800021E192079CF421E02093090101969093C9
:100490001101809310012093000183E080931201E9
:1004A00080910801882309F451C008951092090130
:1004B0001092080180ED9BE090930201809301016E
:1004C00010920001109211011092100184E08093AB
:1004D000120108958091100190911101843921E158
:1004E000920794F421E02093090101969093110161
:1004F000809310011092000184E08093120180919A
:100500000801882339F10895109209011092080119
:10051000109211011092100180ED9BE09093020166
:100520008093010182E0809300011092130181E029
:10053000809312010895109212010895809108018C
:1005400081110BC081E080930801089581E08093C0
:100550000801089581E08093080108958FEF81B923
:1005600012B884B915B861E070E080E090E015DE63
:10057000B4DD24DE4FDF37DE80910E018823E1F306
:1005800010920E01F7CFEE0FFF1F0024001C0BBED0
:0C0590000790F691E02D0994F894FFCF3D
:08059C0002D00B010000000079
:00000001FF
